{
  "contractName": "EasySale",
  "abi": [
    {
      "inputs": [
        {
          "internalType": "contract EasyToken",
          "name": "_tokenContract",
          "type": "address"
        },
        {
          "internalType": "uint256",
          "name": "_tokenPrice",
          "type": "uint256"
        }
      ],
      "stateMutability": "nonpayable",
      "type": "constructor"
    },
    {
      "anonymous": false,
      "inputs": [
        {
          "indexed": false,
          "internalType": "address",
          "name": "owner",
          "type": "address"
        },
        {
          "indexed": false,
          "internalType": "uint256",
          "name": "totalTokens",
          "type": "uint256"
        }
      ],
      "name": "Sell",
      "type": "event"
    },
    {
      "inputs": [],
      "name": "tokenContract",
      "outputs": [
        {
          "internalType": "contract EasyToken",
          "name": "",
          "type": "address"
        }
      ],
      "stateMutability": "view",
      "type": "function",
      "constant": true
    },
    {
      "inputs": [],
      "name": "tokenPrice",
      "outputs": [
        {
          "internalType": "uint256",
          "name": "",
          "type": "uint256"
        }
      ],
      "stateMutability": "view",
      "type": "function",
      "constant": true
    },
    {
      "inputs": [],
      "name": "tokenSold",
      "outputs": [
        {
          "internalType": "uint256",
          "name": "",
          "type": "uint256"
        }
      ],
      "stateMutability": "view",
      "type": "function",
      "constant": true
    },
    {
      "inputs": [
        {
          "internalType": "uint256",
          "name": "_tokensToPurchased",
          "type": "uint256"
        }
      ],
      "name": "buyToken",
      "outputs": [],
      "stateMutability": "payable",
      "type": "function",
      "payable": true
    }
  ],
  "bytecode": "0x608060405234801561001057600080fd5b506040516103f53803806103f5833981810160405281019061003291906100eb565b336000806101000a81548173ffffffffffffffffffffffffffffffffffffffff021916908373ffffffffffffffffffffffffffffffffffffffff16021790555081600160006101000a81548173ffffffffffffffffffffffffffffffffffffffff021916908373ffffffffffffffffffffffffffffffffffffffff1602179055508060028190555050506101a3565b6000815190506100d081610175565b92915050565b6000815190506100e58161018c565b92915050565b600080604083850312156100fe57600080fd5b600061010c858286016100c1565b925050602061011d858286016100d6565b9150509250929050565b60006101328261014b565b9050919050565b600061014482610127565b9050919050565b600073ffffffffffffffffffffffffffffffffffffffff82169050919050565b6000819050919050565b61017e81610139565b811461018957600080fd5b50565b6101958161016b565b81146101a057600080fd5b50565b610243806101b26000396000f3fe60806040526004361061003f5760003560e01c80632d296bf114610044578063519ee19e1461006057806355a373d61461008b5780637ff9b596146100b6575b600080fd5b61005e6004803603810190610059919061012b565b6100e1565b005b34801561006c57600080fd5b506100756100e4565b604051610082919061018d565b60405180910390f35b34801561009757600080fd5b506100a06100ea565b6040516100ad9190610172565b60405180910390f35b3480156100c257600080fd5b506100cb610110565b6040516100d8919061018d565b60405180910390f35b50565b60035481565b600160009054906101000a900473ffffffffffffffffffffffffffffffffffffffff1681565b60025481565b600081359050610125816101f6565b92915050565b60006020828403121561013d57600080fd5b600061014b84828501610116565b91505092915050565b61015d816101d2565b82525050565b61016c816101c8565b82525050565b60006020820190506101876000830184610154565b92915050565b60006020820190506101a26000830184610163565b92915050565b600073ffffffffffffffffffffffffffffffffffffffff82169050919050565b6000819050919050565b60006101dd826101e4565b9050919050565b60006101ef826101a8565b9050919050565b6101ff816101c8565b811461020a57600080fd5b5056fea26469706673582212201d1748b32d0987eac7061e67114cca9239457f912600a85fcd40fe1dd196a14a64736f6c63430008040033",
  "immutableReferences": {},
  "source": "// SPDX-License-Identifier: MIT\r\npragma solidity >=0.4.22 <0.9.0;\r\nimport './EasyToken.sol';\r\n\r\ncontract EasySale {\r\n    address admin;\r\n    EasyToken public tokenContract;\r\n    uint256 public tokenPrice;\r\n    uint256 public tokenSold;\r\n\r\n    event Sell(address owner, uint256 totalTokens);\r\n\r\n    constructor(EasyToken _tokenContract, uint256 _tokenPrice) {\r\n        admin = msg.sender;\r\n        tokenContract = _tokenContract;\r\n        tokenPrice = _tokenPrice;\r\n    }\r\n\r\n    // Functions and addresses declared payable can receive ether into the contract.\r\n    function buyToken(uint256 _tokensToPurchased) public payable {\r\n        \r\n    }\r\n}\r\n",
  "sourcePath": "E:\\Projects\\BlockChain\\CryptoCurrency\\contracts\\EasySale.sol",
  "compiler": {
    "name": "solc",
    "version": "0.8.4+commit.c7e474f2.Emscripten.clang"
  },
  "schemaVersion": "3.4.4",
  "updatedAt": "2022-01-24T10:45:11.945Z",
  "networkType": "ethereum",
  "devdoc": {
    "kind": "dev",
    "methods": {},
    "version": 1
  },
  "userdoc": {
    "kind": "user",
    "methods": {},
    "version": 1
  }
}