{
  "contractName": "EasyToken",
  "abi": [
    {
      "inputs": [
        {
          "internalType": "uint256",
          "name": "_initialSupply",
          "type": "uint256"
        }
      ],
      "stateMutability": "nonpayable",
      "type": "constructor"
    },
    {
      "anonymous": false,
      "inputs": [
        {
          "indexed": true,
          "internalType": "address",
          "name": "_owner",
          "type": "address"
        },
        {
          "indexed": true,
          "internalType": "address",
          "name": "_spender",
          "type": "address"
        },
        {
          "indexed": false,
          "internalType": "uint256",
          "name": "_value",
          "type": "uint256"
        }
      ],
      "name": "Approval",
      "type": "event"
    },
    {
      "anonymous": false,
      "inputs": [
        {
          "indexed": true,
          "internalType": "address",
          "name": "_from",
          "type": "address"
        },
        {
          "indexed": true,
          "internalType": "address",
          "name": "_to",
          "type": "address"
        },
        {
          "indexed": false,
          "internalType": "uint256",
          "name": "_value",
          "type": "uint256"
        }
      ],
      "name": "Transfer",
      "type": "event"
    },
    {
      "inputs": [
        {
          "internalType": "address",
          "name": "",
          "type": "address"
        }
      ],
      "name": "balanceOf",
      "outputs": [
        {
          "internalType": "uint256",
          "name": "",
          "type": "uint256"
        }
      ],
      "stateMutability": "view",
      "type": "function",
      "constant": true
    },
    {
      "inputs": [],
      "name": "name",
      "outputs": [
        {
          "internalType": "string",
          "name": "",
          "type": "string"
        }
      ],
      "stateMutability": "view",
      "type": "function",
      "constant": true
    },
    {
      "inputs": [],
      "name": "standard",
      "outputs": [
        {
          "internalType": "string",
          "name": "",
          "type": "string"
        }
      ],
      "stateMutability": "view",
      "type": "function",
      "constant": true
    },
    {
      "inputs": [],
      "name": "sybmol",
      "outputs": [
        {
          "internalType": "string",
          "name": "",
          "type": "string"
        }
      ],
      "stateMutability": "view",
      "type": "function",
      "constant": true
    },
    {
      "inputs": [],
      "name": "totalTokenSupply",
      "outputs": [
        {
          "internalType": "uint256",
          "name": "",
          "type": "uint256"
        }
      ],
      "stateMutability": "view",
      "type": "function",
      "constant": true
    },
    {
      "inputs": [
        {
          "internalType": "address",
          "name": "to",
          "type": "address"
        },
        {
          "internalType": "uint256",
          "name": "value",
          "type": "uint256"
        }
      ],
      "name": "transfer",
      "outputs": [
        {
          "internalType": "bool",
          "name": "",
          "type": "bool"
        }
      ],
      "stateMutability": "nonpayable",
      "type": "function"
    },
    {
      "inputs": [
        {
          "internalType": "address",
          "name": "_spender",
          "type": "address"
        },
        {
          "internalType": "uint256",
          "name": "_value",
          "type": "uint256"
        }
      ],
      "name": "approve",
      "outputs": [
        {
          "internalType": "bool",
          "name": "",
          "type": "bool"
        }
      ],
      "stateMutability": "nonpayable",
      "type": "function"
    },
    {
      "inputs": [
        {
          "internalType": "address",
          "name": "_from",
          "type": "address"
        },
        {
          "internalType": "address",
          "name": "_to",
          "type": "address"
        },
        {
          "internalType": "uint256",
          "name": "_value",
          "type": "uint256"
        }
      ],
      "name": "transferFrom",
      "outputs": [
        {
          "internalType": "bool",
          "name": "",
          "type": "bool"
        }
      ],
      "stateMutability": "nonpayable",
      "type": "function"
    },
    {
      "inputs": [
        {
          "internalType": "address",
          "name": "_owner",
          "type": "address"
        },
        {
          "internalType": "address",
          "name": "_spender",
          "type": "address"
        }
      ],
      "name": "allowance",
      "outputs": [
        {
          "internalType": "uint256",
          "name": "",
          "type": "uint256"
        }
      ],
      "stateMutability": "view",
      "type": "function",
      "constant": true
    }
  ],
  "bytecode": "0x60806040523480156200001157600080fd5b506040516200113e3803806200113e83398181016040528101906200003791906200023a565b806003819055506040518060400160405280600981526020017f4561737920436f696e0000000000000000000000000000000000000000000000815250600090805190602001906200008b92919062000173565b506040518060400160405280600381526020017f455a43000000000000000000000000000000000000000000000000000000000081525060019080519060200190620000d992919062000173565b506040518060400160405280600a81526020017f455a432076312e302e3000000000000000000000000000000000000000000000815250600290805190602001906200012792919062000173565b5080600460003373ffffffffffffffffffffffffffffffffffffffff1673ffffffffffffffffffffffffffffffffffffffff1681526020019081526020016000208190555050620002ef565b828054620001819062000270565b90600052602060002090601f016020900481019282620001a55760008555620001f1565b82601f10620001c057805160ff1916838001178555620001f1565b82800160010185558215620001f1579182015b82811115620001f0578251825591602001919060010190620001d3565b5b50905062000200919062000204565b5090565b5b808211156200021f57600081600090555060010162000205565b5090565b6000815190506200023481620002d5565b92915050565b6000602082840312156200024d57600080fd5b60006200025d8482850162000223565b91505092915050565b6000819050919050565b600060028204905060018216806200028957607f821691505b60208210811415620002a0576200029f620002a6565b5b50919050565b7f4e487b7100000000000000000000000000000000000000000000000000000000600052602260045260246000fd5b620002e08162000266565b8114620002ec57600080fd5b50565b610e3f80620002ff6000396000f3fe608060405234801561001057600080fd5b50600436106100935760003560e01c80635a3b7e42116100665780635a3b7e421461013457806370a0823114610152578063a9059cbb14610182578063dd62ed3e146101b2578063e0d9bc7b146101e257610093565b806306fdde0314610098578063095ea7b3146100b65780631ca8b6cb146100e657806323b872dd14610104575b600080fd5b6100a0610200565b6040516100ad9190610b24565b60405180910390f35b6100d060048036038101906100cb9190610a30565b61028e565b6040516100dd9190610b09565b60405180910390f35b6100ee610380565b6040516100fb9190610b86565b60405180910390f35b61011e600480360381019061011991906109e1565b610386565b60405161012b9190610b09565b60405180910390f35b61013c610563565b6040516101499190610b24565b60405180910390f35b61016c6004803603810190610167919061097c565b6105f1565b6040516101799190610b86565b60405180910390f35b61019c60048036038101906101979190610a30565b610609565b6040516101a99190610b09565b60405180910390f35b6101cc60048036038101906101c791906109a5565b610620565b6040516101d99190610b86565b60405180910390f35b6101ea6106a7565b6040516101f79190610b24565b60405180910390f35b6000805461020d90610cc2565b80601f016020809104026020016040519081016040528092919081815260200182805461023990610cc2565b80156102865780601f1061025b57610100808354040283529160200191610286565b820191906000526020600020905b81548152906001019060200180831161026957829003601f168201915b505050505081565b600081600560003373ffffffffffffffffffffffffffffffffffffffff1673ffffffffffffffffffffffffffffffffffffffff16815260200190815260200160002060008573ffffffffffffffffffffffffffffffffffffffff1673ffffffffffffffffffffffffffffffffffffffff168152602001908152602001600020819055508273ffffffffffffffffffffffffffffffffffffffff163373ffffffffffffffffffffffffffffffffffffffff167f8c5be1e5ebec7d5bd14f71427d1e84f3dd0314c0f7b2291e5b200ac8c7c3b9258460405161036e9190610b86565b60405180910390a36001905092915050565b60035481565b600081600560008673ffffffffffffffffffffffffffffffffffffffff1673ffffffffffffffffffffffffffffffffffffffff16815260200190815260200160002060008573ffffffffffffffffffffffffffffffffffffffff1673ffffffffffffffffffffffffffffffffffffffff168152602001908152602001600020541015610447576040517f08c379a000000000000000000000000000000000000000000000000000000000815260040161043e90610b66565b60405180910390fd5b610452848484610735565b6104d8600560008673ffffffffffffffffffffffffffffffffffffffff1673ffffffffffffffffffffffffffffffffffffffff16815260200190815260200160002060008573ffffffffffffffffffffffffffffffffffffffff1673ffffffffffffffffffffffffffffffffffffffff1681526020019081526020016000205483610926565b600560008673ffffffffffffffffffffffffffffffffffffffff1673ffffffffffffffffffffffffffffffffffffffff16815260200190815260200160002060008573ffffffffffffffffffffffffffffffffffffffff1673ffffffffffffffffffffffffffffffffffffffff16815260200190815260200160002081905550600190509392505050565b6002805461057090610cc2565b80601f016020809104026020016040519081016040528092919081815260200182805461059c90610cc2565b80156105e95780601f106105be576101008083540402835291602001916105e9565b820191906000526020600020905b8154815290600101906020018083116105cc57829003601f168201915b505050505081565b60046020528060005260406000206000915090505481565b6000610616338484610735565b6001905092915050565b6000600560008473ffffffffffffffffffffffffffffffffffffffff1673ffffffffffffffffffffffffffffffffffffffff16815260200190815260200160002060008373ffffffffffffffffffffffffffffffffffffffff1673ffffffffffffffffffffffffffffffffffffffff16815260200190815260200160002054905092915050565b600180546106b490610cc2565b80601f01602080910402602001604051908101604052809291908181526020018280546106e090610cc2565b801561072d5780601f106107025761010080835404028352916020019161072d565b820191906000526020600020905b81548152906001019060200180831161071057829003601f168201915b505050505081565b3373ffffffffffffffffffffffffffffffffffffffff168273ffffffffffffffffffffffffffffffffffffffff1614156107a4576040517f08c379a000000000000000000000000000000000000000000000000000000000815260040161079b90610b46565b60405180910390fd5b6107ed600460008573ffffffffffffffffffffffffffffffffffffffff1673ffffffffffffffffffffffffffffffffffffffff1681526020019081526020016000205482610926565b600460008573ffffffffffffffffffffffffffffffffffffffff1673ffffffffffffffffffffffffffffffffffffffff16815260200190815260200160002081905550610879600460008473ffffffffffffffffffffffffffffffffffffffff1673ffffffffffffffffffffffffffffffffffffffff168152602001908152602001600020548261093c565b600460008473ffffffffffffffffffffffffffffffffffffffff1673ffffffffffffffffffffffffffffffffffffffff168152602001908152602001600020819055508173ffffffffffffffffffffffffffffffffffffffff168373ffffffffffffffffffffffffffffffffffffffff167fddf252ad1be2c89b69c2b068fc378daa952ba7f163c4a11628f55a4df523b3ef836040516109199190610b86565b60405180910390a3505050565b600081836109349190610c13565b905092915050565b6000818361094a9190610bbd565b905092915050565b60008135905061096181610ddb565b92915050565b60008135905061097681610df2565b92915050565b60006020828403121561098e57600080fd5b600061099c84828501610952565b91505092915050565b600080604083850312156109b857600080fd5b60006109c685828601610952565b92505060206109d785828601610952565b9150509250929050565b6000806000606084860312156109f657600080fd5b6000610a0486828701610952565b9350506020610a1586828701610952565b9250506040610a2686828701610967565b9150509250925092565b60008060408385031215610a4357600080fd5b6000610a5185828601610952565b9250506020610a6285828601610967565b9150509250929050565b610a7581610c59565b82525050565b6000610a8682610ba1565b610a908185610bac565b9350610aa0818560208601610c8f565b610aa981610d52565b840191505092915050565b6000610ac1602383610bac565b9150610acc82610d63565b604082019050919050565b6000610ae4601683610bac565b9150610aef82610db2565b602082019050919050565b610b0381610c85565b82525050565b6000602082019050610b1e6000830184610a6c565b92915050565b60006020820190508181036000830152610b3e8184610a7b565b905092915050565b60006020820190508181036000830152610b5f81610ab4565b9050919050565b60006020820190508181036000830152610b7f81610ad7565b9050919050565b6000602082019050610b9b6000830184610afa565b92915050565b600081519050919050565b600082825260208201905092915050565b6000610bc882610c85565b9150610bd383610c85565b9250827fffffffffffffffffffffffffffffffffffffffffffffffffffffffffffffffff03821115610c0857610c07610cf4565b5b828201905092915050565b6000610c1e82610c85565b9150610c2983610c85565b925082821015610c3c57610c3b610cf4565b5b828203905092915050565b6000610c5282610c65565b9050919050565b60008115159050919050565b600073ffffffffffffffffffffffffffffffffffffffff82169050919050565b6000819050919050565b60005b83811015610cad578082015181840152602081019050610c92565b83811115610cbc576000848401525b50505050565b60006002820490506001821680610cda57607f821691505b60208210811415610cee57610ced610d23565b5b50919050565b7f4e487b7100000000000000000000000000000000000000000000000000000000600052601160045260246000fd5b7f4e487b7100000000000000000000000000000000000000000000000000000000600052602260045260246000fd5b6000601f19601f8301169050919050565b7f45524332303a207472616e7366657220746f20746865207a65726f206164647260008201527f6573730000000000000000000000000000000000000000000000000000000000602082015250565b7f5472616e666572206c696d697420657863656564656400000000000000000000600082015250565b610de481610c47565b8114610def57600080fd5b50565b610dfb81610c85565b8114610e0657600080fd5b5056fea2646970667358221220b382d7a02abee87a7b2a281f4de1df13acb987510518358fca37bd32145f263a64736f6c63430008040033",
  "immutableReferences": {},
  "source": "// SPDX-License-Identifier: MIT\r\npragma solidity >=0.4.22 <0.9.0;\r\nimport '@openzeppelin/contracts/utils/math/SafeMath.sol';\r\n\r\ncontract EasyToken {\r\n    string public name;\r\n    string public sybmol;\r\n    string public standard;\r\n    uint256 public totalTokenSupply;\r\n    mapping(address => uint256) public balanceOf;\r\n    mapping(address => mapping(address => uint256)) internal allowance_map;\r\n\r\n    event Transfer(address indexed _from, address indexed _to, uint256 _value);\r\n    event Approval(\r\n        address indexed _owner,\r\n        address indexed _spender,\r\n        uint256 _value\r\n    );\r\n\r\n    constructor(uint256 _initialSupply) {\r\n        totalTokenSupply = _initialSupply;\r\n        name = 'Easy Coin';\r\n        sybmol = 'EZC';\r\n        standard = 'EZC v1.0.0';\r\n        balanceOf[msg.sender] = _initialSupply;\r\n    }\r\n\r\n    function _transfer(\r\n        address from,\r\n        address to,\r\n        uint256 value\r\n    ) internal {\r\n        require(to != msg.sender, 'ERC20: transfer to the zero address');\r\n        balanceOf[from] = SafeMath.sub(balanceOf[from], value);\r\n        balanceOf[to] = SafeMath.add(balanceOf[to], value);\r\n        emit Transfer(from, to, value);\r\n    }\r\n\r\n    function transfer(address to, uint256 value) public returns (bool) {\r\n        _transfer(msg.sender, to, value);\r\n        return true;\r\n    }\r\n\r\n    function approve(address _spender, uint256 _value) public returns (bool) {\r\n        allowance_map[msg.sender][_spender] = _value;\r\n        emit Approval(msg.sender, _spender, _value);\r\n        return true;\r\n    }\r\n\r\n    function transferFrom(\r\n        address _from,\r\n        address _to,\r\n        uint256 _value\r\n    ) public returns (bool) {\r\n        require(allowance_map[_from][_to] >= _value, 'Tranfer limit exceeded');\r\n        _transfer(_from, _to, _value);\r\n        allowance_map[_from][_to] = SafeMath.sub(\r\n            allowance_map[_from][_to],\r\n            _value\r\n        );\r\n        return true;\r\n    }\r\n\r\n    function allowance(address _owner, address _spender)\r\n        public\r\n        view\r\n        returns (uint256)\r\n    {\r\n        return allowance_map[_owner][_spender];\r\n    }\r\n}\r\n",
  "sourcePath": "E:\\Projects\\BlockChain\\CryptoCurrency\\contracts\\EasyToken.sol",
  "compiler": {
    "name": "solc",
    "version": "0.8.4+commit.c7e474f2.Emscripten.clang"
  },
  "schemaVersion": "3.4.4",
  "updatedAt": "2022-01-24T10:45:11.936Z",
  "networkType": "ethereum",
  "devdoc": {
    "kind": "dev",
    "methods": {},
    "version": 1
  },
  "userdoc": {
    "kind": "user",
    "methods": {},
    "version": 1
  }
}